:020000040000FA
:100000000C9463000C948B000C948B000C948B006C
:100010000C948B000C948B000C948B000C948B0034
:100020000C948B000C948B000C948B000C948B0024
:100030000C948B000C948B000C948B000C948B0014
:100040000C9468030C948B000C94D8030C94B203AA
:100050000C948B000C948B000C948B000C948B00F4
:100060000C948B000C948B000000000023002600F1
:10007000290000000000240027002A0000000000E2
:10008000250028002B0004040404040404040202D4
:100090000202020203030303030301020408102007
:1000A0004080010204081020010204081020000012
:1000B0000008000201000003040700000000000027
:1000C00000000A04070711241FBECFEFD8E0DEBFEF
:1000D000CDBF22E0AAE0B2E001C01D92A43EB2076B
:1000E000E1F712E0A0E0B1E0E0EFF2E102C005903C
:1000F0000D92AA30B107D9F710E0C2E6D0E004C0F3
:100100002197FE010E946A07C136D107C9F70E94F4
:1001100066040C946B090C940000833081F028F481
:10012000813099F08230A9F008958730A9F08830A5
:10013000C9F08430B1F4809180008F7D03C080913C
:1001400080008F7780938000089584B58F7784BD79
:10015000089584B58F7DFBCF8091B0008F77809319
:10016000B00008958091B0008F7DF9CF1F93CF9399
:10017000DF93282F30E0F901E255FF4F8491F90118
:10018000E656FF4FD491F901EA57FF4FC491CC23B3
:10019000A9F0162F81110E948D00EC2FF0E0EE0FD8
:1001A000FF1FE458FF4FA591B4918FB7F894EC91DD
:1001B000111108C0D095DE23DC938FBFDF91CF9162
:1001C0001F910895DE2BF8CFCF93DF9390E0FC01D1
:1001D000E656FF4F24918A579F4FFC018491882354
:1001E000D1F090E0880F991FFC01EE58FF4FA591C8
:1001F000B491FC01E458FF4FC591D491623071F481
:100200009FB7F8943C91822F809583238C93E8814B
:100210002E2B28839FBFDF91CF9108958FB7F8943D
:10022000EC912E2B2C938FBFF6CF3FB7F894809193
:100230000B0290910C02A0910D02B0910E0226B516
:10024000A89B05C02F3F19F00196A11DB11D3FBF0E
:10025000BA2FA92F982F8827BC01CD01620F711DDD
:10026000811D911D42E0660F771F881F991F4A95D7
:10027000D1F708958F929F92AF92BF92CF92DF9263
:10028000EF92FF924B015C010E9415016B017C0112
:100290000E9415016C197D098E099F09683E734003
:1002A00081059105A8F321E0821A9108A108B108FF
:1002B00088EEC80E83E0D81EE11CF11C8114910465
:1002C000A104B10429F7FF90EF90DF90CF90BF9089
:1002D000AF909F908F9008950895AF92BF92CF9264
:1002E000DF92EF92FF920F931F93CF93DF936C01F6
:1002F0007B018B01040F151FEB015E01AE18BF08D7
:10030000C017D10759F06991D601ED91FC91019088
:10031000F081E02DC6010995892B79F7C501DF91A0
:10032000CF911F910F91FF90EF90DF90CF90BF90F2
:10033000AF900895FC01538D448D252F30E0842F1C
:1003400090E0821B930B541710F0CF9608950197FD
:100350000895FC01918D828D981761F0A28DAE0FEA
:10036000BF2FB11D5D968C91928D9F5F9F73928F71
:1003700090E008958FEF9FEF08952FB7F894809144
:100380000F0290911002A0911102B09112022FBFA2
:1003900080931B0290931C02A0931D02B0931E0237
:1003A00083E192E00E94A90197FF26C02FB7F8943D
:1003B00080910F0290911002A0911102B09112024F
:1003C0002FBF40911B0250911C0260911D02709141
:1003D0001E02841B950BA60BB70B40911702509180
:1003E00018026091190270911A0284179507A607E6
:1003F000B707B0F28FEF9FEF0895FC01918D828DCA
:10040000981731F0828DE80FF11D858D90E00895E9
:100410008FEF9FEF0895FC01918D228D892F90E041
:10042000805C9F4F821B91098F739927089583E108
:1004300092E00E940B0221E0892B09F420E0822F38
:10044000089580E090E0892B29F00E941702811125
:100450000C9400000895FC01A48DA80FB92FB11DC4
:10046000A35ABF4F2C91848D90E001968F739927EA
:10047000848FA689B7892C93A089B1898C918370C8
:1004800080648C93938D848D981306C00288F389C1
:10049000E02D80818F7D80830895EF92FF920F93EE
:1004A0001F93CF93DF93EC0181E0888F9B8D8C8D20
:1004B00098131AC0E889F989808185FF15C09FB714
:1004C000F894EE89FF896083E889F98980818370D7
:1004D000806480839FBF81E090E0DF91CF911F9186
:1004E0000F91FF90EF900895F62E0B8D10E00F5FA7
:1004F0001F4F0F731127E02E8C8D8E110CC00FB67D
:1005000007FCFACFE889F989808185FFF5CFCE0114
:100510000E942B02F1CFEB8DEC0FFD2FF11DE35A62
:10052000FF4FF0829FB7F8940B8FEA89FB89808197
:100530008062CFCFCF93DF93EC01888D8823B9F011
:10054000AA89BB89E889F9898C9185FD03C08081DE
:1005500086FD0DC00FB607FCF7CF8C9185FFF2CF5B
:10056000808185FFEDCFCE010E942B02E9CFDF9184
:10057000CF910895FC0101900020E9F73197AF0178
:10058000481B590BBC0183E192E00C946D010C9463
:10059000BA022091DE023091DF02DC0114964D9107
:1005A0005C91159724173507D9F4E091DA02F091A0
:1005B000DB026D917C913097D1F06115710599F452
:1005C000232BC1F0808190E008C0232B99F0FB0120
:1005D000808190E091958195910921E0892B09F026
:1005E00020E0822F0895CF010E945B09F6CF6115AC
:1005F000710559F721E0F5CFFC01808191810097C9
:1006000011F00C940C0808950F931F93CF93DF9370
:10061000EC0188819981009759F02A813B81261746
:10062000370730F081E0DF91CF911F910F9108954E
:100630008B016F5F7F4F0E949508009759F0998357
:1006400088831B830A832C813D81232B59F7FC016E
:100650001082E8CF80E0E7CFEF92FF920F931F93D5
:10066000CF93DF93EC017B01198218821B821A82DF
:100670001D821C82FB0101900020E9F731978F0158
:10068000061B170BB8010E940403288139818111D0
:1006900013C02115310519F0C9010E940C081982F7
:1006A00018821D821C821B821A82DF91CF911F91BA
:1006B0000F91FF90EF9008951D830C83B701C9013E
:1006C000DF91CF911F910F91FF90EF900C946409EF
:1006D0001F920F920FB60F9211242F933F938F9377
:1006E0009F93AF93BF9380910F0290911002A091BE
:1006F0001102B091120230910A0223E0230F2D372C
:1007000058F50196A11DB11D20930A0280930F0296
:1007100090931002A0931102B093120280910B02E9
:1007200090910C02A0910D02B0910E020196A11DB4
:10073000B11D80930B0290930C02A0930D02B09315
:100740000E02BF91AF919F918F913F912F910F908A
:100750000FBE0F901F90189526E8230F0296A11D3B
:10076000B11DD2CF1F920F920FB60F9211242F936B
:100770003F934F935F936F937F938F939F93AF9329
:10078000BF93EF93FF9383E192E00E942B02FF91CE
:10079000EF91BF91AF919F918F917F916F915F91F9
:1007A0004F913F912F910F900FBE0F901F90189572
:1007B0001F920F920FB60F9211242F938F939F9336
:1007C000EF93FF93E0912302F09124028081E09166
:1007D0002902F0912A0282FD1BC0908180912C0297
:1007E0008F5F8F7320912D02821741F0E0912C02D0
:1007F000F0E0ED5EFD4F958F80932C02FF91EF911D
:100800009F918F912F910F900FBE0F901F90189571
:100810008081F4CFE3E1F2E01382128288EE93E06C
:10082000A0E0B0E084839583A683B7838AE091E05B
:100830009183808385EC90E09587848784EC90E0B9
:100840009787868780EC90E0918B808B81EC90E09D
:10085000938B828B82EC90E0958B848B86EC90E07E
:10086000978B868B118E128E138E148E60E671E03C
:100870008AED92E00E942C0368E171E082EC92E044
:100880000E942C036DE171E088EC92E00E942C0341
:1008900062E271E08EEC92E00E942C0368E271E06B
:1008A00084ED92E00E942C036EE271E080EB92E016
:1008B0000E942C0362E371E086EB92E00E942C031D
:1008C00066E371E08CEB92E00C942C03CF93DF9302
:1008D000CDB7DEB728970FB6F894DEBF0FBECDBFF9
:1008E000789484B5826084BD84B5816084BD85B50B
:1008F000826085BD85B5816085BD80916E00816017
:1009000080936E00109281008091810082608093BC
:1009100081008091810081608093810080918000BE
:100920008160809380008091B10084608093B100E9
:100930008091B00081608093B00080917A008460E3
:1009400080937A0080917A00826080937A0080910F
:100950007A00816080937A0080917A008068809329
:100960007A001092C100E0912302F091240282E00B
:100970008083E0911F02F09120021082E091210219
:10098000F09122028FEC808310922B02E0912702DB
:10099000F091280286E08083E0912502F091260202
:1009A000808180618083E0912502F0912602808120
:1009B00088608083E0912502F09126028081806822
:1009C0008083E0912502F091260280818F7D8083D3
:1009D00061E08DE00E94E40061E08CE00E94E400B0
:1009E00061E08BE00E94E40062E08EE00E94E4009F
:1009F00060E08DE00E94B60060E08CE00E94B600EE
:100A000060E08BE00E94B60060ED77E080E090E06F
:100A10000E943A018AE391E00E94BA028EE591E0D9
:100A20000E94BA029CEB292E90E0392E28EA422E31
:100A300020E0522E34E9632E30E0732E40E0A42EE5
:100A400040E0B42E83E192E00E940B0218161906D2
:100A50000CF062C160E671E0CE0101960E942C03A9
:100A60000E94BD0197FD1BC08F8318860D811E81DA
:100A70000F5F1F4FB801CE0101960E940403882327
:100A800079F329813A818D819E81BE01695F7F4F13
:100A9000820F931F0E9464091E830D83E1CF809112
:100AA000DA029091DB02009709F4A8C069817A818B
:100AB0006115710509F4A0C04091DC025091DD027E
:100AC0002D813E814217530708F496C00E946409A5
:100AD0008D819E819093DF028093DE021E821D82B3
:100AE000CE0101960E94FC02C090DA02D090DB0297
:100AF000C114D10449F00091DE021091DF027601A9
:100B00000115110509F092C082EC92E00E94C90221
:100B1000811113C088EC92E00E94C90281110DC0BE
:100B20008EEC92E00E94C902811107C084ED92E030
:100B30000E94C902882309F4B5C081E691E00E94B1
:100B4000C70260ED77E080E090E00E943A0181E723
:100B500091E00E94C70260E08BE00E94B60061E075
:100B60008BE00E94B60064E670E080E090E00E94B6
:100B70003A0160E08BE00E94B60061E08BE00E94E9
:100B8000B60064E670E080E090E00E943A0160E028
:100B90008BE00E94B60061E08DE00E94B60068EE36
:100BA00073E080E090E00E943A0184E791E00E94C7
:100BB000C70260ED77E080E090E00E943A0161E0DA
:100BC0008CE00E94B60060ED77E080E090E00E944B
:100BD0003A0160E08CE00E94B60081E791E00E945B
:100BE000C70268EE73E080E090E00E943A018AE874
:100BF00091E00E94C70290C00E940C0889819A81EE
:100C00009093DB028093DA028B819C819093DD02CA
:100C10008093DC028D819E819093DF028093DE02BF
:100C20001A8219821C821B8259CF740147018FEFEF
:100C3000881A980AF7018081082E000C990B0E94EF
:100C40002707892B91F7015011090C0D1D1DF80183
:100C50008081082E000C990B0E942707892B31F008
:100C60000E151F0518F001501109F1CF0F5F1F4F2E
:100C7000A8014E195F095093DF024093DE02CE14A3
:100C8000DF0420F4B701C6010E945209E091DA02A4
:100C9000F091DB028091DE029091DF02E80FF91FF4
:100CA000108232CF80EB92E00E94C90281115CC0B9
:100CB00086EB92E00E94C902811156C08CEB92E053
:100CC0000E94C902811150C08CEA91E00E94C702C3
:100CD00088E991E00E94C7028AEA91E00E94C70277
:100CE00060ED77E080E090E00E943A0168EE73E00A
:100CF00080E090E00E943A018EEA91E00E94C702F3
:100D000060E08DE00E94B60060E08CE00E94B600DA
:100D100061E08BE00E94B600F1018491F201149130
:100D2000F3010491011163C08EEE91E00E94BA02BA
:100D30008EE591E00E94BA0268EE73E080E090E0F8
:100D40000E943A016AE070E080E090E00E943A017F
:100D5000A114B10409F476CE0E941702882309F485
:100D600071CE0E9400006ECE8DEB91E00E94C70212
:100D700060ED77E080E090E00E943A0181E791E049
:100D80000E94C70261E08BE00E94B6006AEF70E04B
:100D900080E090E00E943A0160E08BE00E94B600A3
:100DA00061E08BE00E94B6006AEF70E080E090E0C6
:100DB0000E943A0160E08BE00E94B60061E08BE0A7
:100DC0000E94B6006AEF70E080E090E00E943A0175
:100DD00060E08BE00E94B60060E08DE00E94B6000B
:100DE00060E08CE00E94B60084ED91E002CF8111BA
:100DF0000E948D00E02FF0E0EE0FFF1FE859FF4F3B
:100E0000A591B4918C91182309F48ECF9BCF8CEBD4
:100E100092E00E94FC0286EB92E00E94FC0280EBD2
:100E200092E00E94FC0284ED92E00E94FC028EECB3
:100E300092E00E94FC0288EC92E00E94FC0282ECAC
:100E400092E00E94FC028AED92E00C94FC02911167
:100E50000C943007803219F089508550C8F70895F6
:100E60009927882708952F923F924F925F926F9211
:100E70007F928F929F92AF92BF92CF92DF92EF922A
:100E8000FF920F931F93CF93DF93CDB7DEB7CA1BAB
:100E9000DB0B0FB6F894DEBF0FBECDBF09942A88D6
:100EA000398848885F846E847D848C849B84AA847E
:100EB000B984C884DF80EE80FD800C811B81AA810B
:100EC000B981CE0FD11D0FB6F894DEBF0FBECDBFD6
:100ED000ED010895EE0FFF1F0590F491E02D0994A8
:100EE0000F931F93CF93DF938230910510F482E02C
:100EF00090E0E091E202F091E30230E020E0B0E027
:100F0000A0E0309799F42115310509F44AC0281B57
:100F1000390B24303105D8F58A819B816115710523
:100F200089F1FB0193838283FE0111C040815181CD
:100F30000281138148175907E0F04817590799F4BF
:100F4000109761F012960C93129713961C93329699
:100F5000CF01DF91CF911F910F9108950093E2028D
:100F60001093E302F4CF2115310551F042175307D6
:100F700038F0A901DB019A01BD01DF01F801C1CF01
:100F8000EF01F9CF9093E3028093E202CDCFFE010F
:100F9000E20FF31F81939193225031093983288303
:100FA000D7CF2091E0023091E102232B41F4209130
:100FB0000201309103013093E1022093E00220917D
:100FC0000001309101012115310541F42DB73EB7E3
:100FD0004091040150910501241B350BE091E00282
:100FE000F091E102E217F307A0F42E1B3F0B281744
:100FF000390778F0AC014E5F5F4F2417350748F092
:101000004E0F5F1F5093E1024093E0028193919352
:101010009FCFF0E0E0E09CCFCF93DF930097E9F023
:10102000FC01329713821282A091E202B091E30296
:10103000ED0130E020E01097A1F420813181820F92
:10104000931F2091E0023091E1022817390709F03F
:1010500061C0F093E102E093E002DF91CF91089547
:10106000EA01CE17DF07E8F54A815B819E01411551
:101070005105B1F7E901FB83EA8349915991C40F06
:10108000D51FEC17FD0761F4808191810296840FD2
:10109000951FE90199838883828193819B838A8349
:1010A000F0E0E0E012968D919C9113970097B9F5CE
:1010B0002D913C911197CD010296820F931F2091A3
:1010C000E0023091E1022817390739F6309751F5DF
:1010D0001092E3021092E202B093E102A093E002C8
:1010E000BCCFD383C28340815181840F951FC81721
:1010F000D90761F44E5F5F4F88819981480F591F6E
:10110000518340838A819B8193838283211531059A
:1011100009F0B0CFF093E302E093E2029ECFFD012D
:10112000DC01C0CF13821282D7CFB0E0A0E0EBE9A0
:10113000F8E00C9435078C01009751F4CB010E9424
:1011400070078C01C801CDB7DEB7E0E10C94510700
:10115000FC01E60FF71F9C0122503109E217F3074B
:1011600008F49DC0D901CD91DC911197C617D7071E
:1011700098F0C530D10530F3CE0104978617970754
:1011800008F3C61BD70B2297C193D1936D937C9321
:10119000CF010E940C08D6CF5B01AC1ABD0A4C01EE
:1011A0008C0E9D1EA091E202B091E302512C412CC5
:1011B000F12CE12C109731F58091E0029091E10241
:1011C0008815990509F05CC04616570608F058C006
:1011D0008091000190910101009741F48DB79EB775
:1011E0004091040150910501841B950BE817F90704
:1011F00008F055C0F093E102E093E002F901718339
:101200006083A0CF8D919C91119712966C9012974C
:1012100013967C901397A815B90559F56C0142E017
:10122000C40ED11CCA14DB0420F1AC014A195B09BD
:10123000DA011296159780F062827382518340839F
:10124000D9016D937C93E114F10471F0D7011396E9
:10125000FC93EE93129776CF22968C0F9D1FF90187
:1012600091838083F301EFCFF093E302E093E202F6
:1012700069CF4816590608F42C017D01D3019ACF95
:10128000CB010E9470077C01009749F0AE01B801C4
:101290000E945209C8010E940C08870153CF10E038
:1012A00000E050CFFB01DC0102C001900D924150E3
:1012B0005040D8F70895FB01DC018D910190801911
:1012C0000110D9F3990B0895FB01DC0101900D92F7
:1012D0000020E1F7089510E0C2E6D0E004C0FE016E
:1012E0000E946A072196C336D107C9F7F894FFCF49
:1012F0000000E4028000000000004D026D019A0130
:101300009A020B02A901FD016B616D750074616D9C
:10131000750061646D696E006775657374006F6652
:1013200066004F6666004F46460057454C434F4D9A
:10133000452120494E534552542050415353574F55
:10134000524420504C45415345203A2920000D0A73
:101350000057454C434F4D45204341505441494E61
:10136000002D3E002020454E47494E4520504F5706
:101370004552494E4720555021002020454E4749AF
:101380004E45204F4E202000202057524F4E4720E0
:1013900050415353574F52442100202058002020E1
:1013A00054525920414741494E203A2000202045BF
:1013B0004E47494E4520504F574552494E47204FC2
:1013C00046462100202048415645204E49434520AD
:1013D000444159204341505441494E2120004D4F32
:1013E000544F52204144412059414E47204D454ED3
:0A13F00047454E44415241490000B8
:107E0000112484B714BE81FFF0D085E080938100F7
:107E100082E08093C00088E18093C10086E0809377
:107E2000C20080E18093C4008EE0C9D0259A86E02C
:107E300020E33CEF91E0309385002093840096BBD3
:107E4000B09BFECF1D9AA8958150A9F7CC24DD24C4
:107E500088248394B5E0AB2EA1E19A2EF3E0BF2EE7
:107E6000A2D0813461F49FD0082FAFD0023811F036
:107E7000013811F484E001C083E08DD089C08234E0
:107E800011F484E103C0853419F485E0A6D080C0E4
:107E9000853579F488D0E82EFF2485D0082F10E0AE
:107EA000102F00270E291F29000F111F8ED06801E7
:107EB0006FC0863521F484E090D080E0DECF843638
:107EC00009F040C070D06FD0082F6DD080E0C81688
:107ED00080E7D80618F4F601B7BEE895C0E0D1E017
:107EE00062D089930C17E1F7F0E0CF16F0E7DF06D8
:107EF00018F0F601B7BEE89568D007B600FCFDCFD4
:107F0000A601A0E0B1E02C9130E011968C91119780
:107F100090E0982F8827822B932B1296FA010C0160
:107F200087BEE89511244E5F5F4FF1E0A038BF0790
:107F300051F7F601A7BEE89507B600FCFDCF97BE46
:107F4000E89526C08437B1F42ED02DD0F82E2BD052
:107F50003CD0F601EF2C8F010F5F1F4F84911BD097
:107F6000EA94F801C1F70894C11CD11CFA94CF0C13
:107F7000D11C0EC0853739F428D08EE10CD085E9AC
:107F80000AD08FE07ACF813511F488E018D01DD067
:107F900080E101D065CF982F8091C00085FFFCCF94
:107FA0009093C60008958091C00087FFFCCF809118
:107FB000C00084FD01C0A8958091C6000895E0E648
:107FC000F0E098E1908380830895EDDF803219F02E
:107FD00088E0F5DFFFCF84E1DECF1F93182FE3DFCA
:107FE0001150E9F7F2DF1F91089580E0E8DFEE27F6
:047FF000FF270994CA
:027FFE00040479
:00000001FF
